:020000040800F2
:10000000000700209D010008BF1200086D110008C4
:10001000BD120008A90200088317000800000000B4
:100020000000000000000000000000008313000832
:10003000AB020008000000008113000885130008CF
:10004000B7010008B7010008B7010008B7010008B0
:10005000B7010008B7010008B7010008B7010008A0
:10006000B7010008B7010008B7010008B701000890
:10007000B7010008B7010008B7010008B701000880
:10008000B7010008B7010008B7010008B701000870
:10009000B7010008B7010008B7010008B701000860
:1000A000B7010008B7010008B7010008B701000850
:1000B000B7010008B70100083D140008B7010008A7
:1000C000B7010008B7010008B7010008B701000830
:1000D000B7010008B7010008B7010008B701000820
:1000E000B7010008B7010008B7010008B701000810
:1000F000B7010008B7010008B7010008B701000800
:10010000B7010008B7010008B7010008B7010008EF
:10011000B7010008B7010008B7010008B7010008DF
:10012000B7010008B7010008B7010008B7010008CF
:10013000B7010008B7010008B7010008B7010008BF
:10014000B7010008B7010008B7010008B7010008AF
:10015000B7010008B7010008B7010008B70100089F
:10016000B7010008B7010008B7010008B70100088F
:10017000B7010008B7010008B7010008000000003F
:1001800061110008B7010008DFF80CD000F07AF820
:1001900000480047DD170008000700200648804798
:1001A00006480047FEE7FEE7FEE7FEE7FEE7FEE75C
:1001B000FEE7FEE7FEE7FEE72114000889010008DC
:1001C0002DE9F05F0546002092469B46884606468C
:1001D000814640241BE0284641464746224600F01F
:1001E00041F853465A46C01A914110D31146184659
:1001F000224600F028F82D1A67EB01084F462246E8
:100200000120002100F01FF817EB00094E41201ECD
:10021000A4F10104DFDC484631462A464346BDE8E6
:10022000F09FD2B201E000F8012B491EFBD27047CB
:100230000022F6E710B513460A4604461946FFF7B2
:10024000F0FF204610BD202A04DB203A00FA02F11C
:10025000002070479140C2F1200320FA03F31943B4
:1002600090407047202A04DB203A21FA02F0002156
:10027000704721FA02F3D040C2F1200291400843B6
:1002800019467047064C074D06E0E06840F0010350
:1002900094E8070098471034AC42F6D3FFF778FF94
:1002A0002418000844180008FEE770472DE9F84FAD
:1002B000DFF8B8A1002201250AF1040B03264FF054
:1002C0000F090BF1040E00BF0B6805FA02F423407E
:1002D000A3426FD10F7907F00307012F01D0022F3E
:1002E00016D187684FEA420806FA08FC27EA0C078D
:1002F000D1F80CC00CFA08FC4CEA070CC0F808C096
:100300004768A7430C79C4F3001494403C4344600D
:100310000C79E443A4070AD0C4684FEA420C06FAF9
:100320000CF7BC438F6807FA0CF72743C7600C79BA
:1003300004F00304022C12D1D40800EB840CDCF886
:1003400020405707FF0E09FA07F824EA0804D1F8FD
:10035000108008FA07F848EA0408CCF820800468FE
:100360004FEA420C06FA0CF7BC430F7907F003077B
:1003700007FA0CF7274307604C68E40070D53C4C43
:10038000276847F480472760246822F0030704F4B5
:1003900080440094374C07EB040CDCF808489707BE
:1003A0004FEA177809FA08F7BC43334FB84202D135
:1003B000002724E054E0314FB84201D101271EE06C
:1003C0002F4FB84201D1022719E02E4FB84201D178
:1003D000032714E02C4FB84201D104270FE02B4F24
:1003E000B84201D105270AE0294FB84201D10627BA
:1003F00005E0284FB84201D1072700E0082707FA97
:1004000008F72743CCF80878DAF800405746D1F8C7
:1004100004C09C435FEACC3C00D51C433C60DBF845
:1004200000405F46D1F804C09C435FEA8C3C00D595
:100430001C433C60DEF800407746D1F804C09C4382
:100440005FEACC2C00D51C433C60084F0C373C685D
:10045000D1F804C09C435FEA8C2C00D51C433C605F
:10046000521C102AFFF430AFBDE8F88F003C014069
:1004700044380240003001400000024000040240C5
:1004800000080240000C024000100240001402402C
:1004900000180240001C02400AB181617047090443
:1004A000FBE700000148806870470000180000204A
:1004B000024881680278114481607047180000206A
:1004C0000B4810B5016841F400710160016841F406
:1004D00080610160016841F480710160032000F0D7
:1004E00071F8002000F006F800F024F8002010BD9C
:1004F000003C024070B50D4D04464FF47A712878E7
:10050000B1FBF0F00A490968B1FBF0F000F09BFB89
:1005100048B9102C07D200222146501E00F032F8B4
:1005200000206C6070BD012070BD0000180000202C
:10053000240000200B4882B0016841F48041016032
:10054000006800F4804000900648001F016841F0F8
:1005500080510160006800F080500090072002B0D8
:1005600000F030B844380240002809DB00F01F02D8
:10057000012191404009800000F1E020C0F8001105
:1005800070470000F0B40E4B1B680C46C3F3022307
:10059000C3F10705042D00D90425191D072901D22F
:1005A000002300E0DB1E012606FA05F1491E21406A
:1005B00099409E40761E16403143F0BC01F0E2B8EF
:1005C0000CED00E0064900F0070208684FF6FF0353
:1005D000184040EA0220034A1043086070470000B8
:1005E0000CED00E00000FA052DE9F0470E4605008D
:1005F00065D0DFF81481D8F80000F7B200F00700EA
:10060000B04207D288F80070D8F8000000F0070068
:10061000B04254D128683D4C810712D5400703D51C
:10062000206840F4E05020602878000703D5206857
:1006300040F4604020602068A96820F0F000084382
:1006400020602878C0072DD0304968680839012813
:1006500012D0022813D0032811D009688907002975
:100660002DDA216821F0030101432160FFF71AFF11
:10067000814641F2883A0EE009688903EFE709688C
:100680008901ECE7FFF70EFFA0EB0901514502D904
:100690000320BDE8F0872068696800F00C00B0EB2B
:1006A000810FEFD1D8F80010404601F00701B142A8
:1006B00007D90770006800F00700B04201D00120A0
:1006C000E7E72878400705D52068E96820F4E0507E
:1006D000084320602878000706D52068296920F49F
:1006E000604040EAC100206000F018F82168084A24
:1006F000C1F30311515CC840064908600648006810
:10070000FFF7F8FE0020C4E7003C02400838024032
:1007100014180008240000201C000020154810B503
:10072000006810F00C02144813D04110042A0FD0B6
:10073000082A0ED10F4C241F2268236802F03F02C2
:100740005B0207D52068C0F38810A0FB010106E01A
:10075000084610BD2168C1F38811A1FB00010023E8
:10076000FFF72EFD2168C1F30141491C4900B0FB90
:10077000F1F010BD083802400024F400F0B51F4C21
:1007800016460D461D4B002102220327283C002857
:10079000186887B019D040F004001860186800F09D
:1007A0000400059010020090CDE90121CDE903710C
:1007B00069461348FFF77AFD206845EAC60120F034
:1007C00078400843206007B0F0BD40F00100186099
:1007D000186800F0010005904FF480700090CDE99A
:1007E0000121CDE9037169460648FFF75FFD2068E6
:1007F000354320F0EC602843E4E700003038024045
:1008000000080240000002402DE9F84F04006ED0BD
:100810002078DFF84C93C007A9F104054AD009F10C
:1008200004000168C1F38101012908D00068C0F308
:10083000810002280AD1D9F80000400206D52868B4
:10084000800337D560680028E1D033E06068B0F5F8
:10085000803F10D0B0F5A02F286810D020F4803051
:100860002860286820F4802028606068A8B1FFF71D
:1008700019FE06460DE0286840F48030F4E740F4A5
:1008800080202860F7E700BFFFF70CFE801B64287C
:1008900073D828688003F7D50CE0FFF703FE0646FF
:1008A00005E000BFFFF7FEFD801B6428F0D8286834
:1008B0008003F7D42078DFF8AC8280074FF0000A7D
:1008C0003ED5A748001D016811F00C0F08D0006844
:1008D000C0F3810002280BD1D9F80000400207D4F0
:1008E0002868800716D5E068012800D112E033E1BE
:1008F000E068B8B10120C8F80000FFF7D3FD064654
:1009000005E000BFFFF7CEFD801B0228C0D8286895
:100910008007F7D52868216920F0F80040EAC10077
:1009200028600DE0C8F800A0FFF7BCFD064604E013
:10093000FFF7B8FD801B02281FD828688007F7D46E
:100940002078000722D5864F87486169703771B1DA
:1009500001210160FFF7A6FD064604E0FFF7A2FDB6
:10096000801B022809D838688007F7D50EE0C0F848
:1009700000A0FFF797FD064605E082E0FFF792FD35
:10098000801B02287DD838688007F7D4207840077C
:1009900068D5DFF8CCB100270BF13C0BDBF8000089
:1009A000C0000BD4DBF8001041F08051CBF80010F0
:1009B000DBF80000012700F0805000906B4E30689B
:1009C000C00510D4306840F480703060FFF76AFDD5
:1009D000009005E0FFF766FD0099401A022850D804
:1009E0003068C005F6D55E4EA0686C3601280FD081
:1009F0000528306810D020F001003060306820F009
:100A000004003060A068B8B1FFF74CFD00900FE023
:100A1000306840F00100F4E740F004003060F7E790
:100A2000FFF740FD0099411A41F28830814266D8B3
:100A300030688007F4D50EE0FFF734FD009007E042
:100A4000FFF730FD0099411A41F28830814256D8B3
:100A500030688007F4D42FB1DBF8001021F080510A
:100A6000CBF80010A069C8B33D49091D0968C1F35E
:100A7000810102294AD00228504607D0C8F86000F8
:100A800000E03CE0FFF70EFD04463BE04746C8F8B7
:100A90006000FFF707FD064605E000BFFFF702FD17
:100AA000801B02282BD828688001F7D4D4E90701DD
:100AB0000843A16A2E4A490802EB0141626A41EAF1
:100AC0008211084394F82C1040EA0161C9F8001023
:100AD00001203866FFF7E6FC044606E03EE000BF72
:100AE000FFF7E0FC001B022809D828688001F7D531
:100AF00034E000BFFFF7D6FC001B022802D9032018
:100B0000BDE8F88F28688001F4D427E00128F7D0E9
:100B1000D9F80000E26900F4800191421CD1226AF8
:100B200000F03F01914217D147F6C071626A01405F
:100B3000B1EB821F10D1A26A4FF0FF3300F44031B5
:100B400003EB5202B1EB024F06D194F82C1000F0E7
:100B50007060B0EB016F01D00120D1E70020CFE73A
:100B60000438024000004742800E474200700040B7
:100B70000000FFFF704710B5044600684168C94394
:100B8000890601D4102004E04068C04340060AD41E
:100B90000820A060042060712046FFF7EBFF216869
:100BA0006FF06000486020684168C943C90710D1F0
:100BB000016821F00801016020688168E1606079C6
:100BC000042806D00120607100202071204600F02A
:100BD00039F810BD70B5040003D06079002510B15C
:100BE00005E0012070BD2571204600F00DF80220BF
:100BF00060712068016841F00401016001206071AA
:100C0000A560002070BD000008B500680B4988424F
:100C100012D10B48016841F04001016000680022D8
:100C200000F04000009011465020FFF7ABFCBDE8FB
:100C300008405020FFF798BC08BD0000000806508F
:100C400034380240704710B5401EB0F1807F01D3A8
:100C5000012010BD4FF0E02460610F21601700F00B
:100C600091FD0020A06107202061002010BD704789
:100C70007047000070B590F83C20012A32D0012462
:100C800080F83C40022280F83D2003685A689D6845
:100C900022F070060A6832435A60134B02689A4287
:100CA00014D0B2F1804F11D0104B9A420ED0104B9D
:100CB0009A420BD00F4B9A4208D00F4B9A4205D064
:100CC0000E4B9A4202D00E4B9A4204D1496825F04D
:100CD00080031943916080F83D40002180F83C106A
:100CE000084670BD022070BD0000014000040040B5
:100CF00000080040000C004000040140004001409A
:100D00000018004010B5040003D094F83D0010B165
:100D100007E0012010BD002084F83C00204600F0D0
:100D20001FF8022084F83D00211D206800F0CEFB52
:100D3000012084F8460084F83E0084F83F0084F8DF
:100D4000400084F8410084F8420084F8430084F8AD
:100D5000440084F8450084F83D00002010BD0000E8
:100D600008B500680B49884212D10B48016841F070
:100D7000040101600068002200F0040000901146A8
:100D80001E20FFF7FFFBBDE808401E20FFF7ECBB6D
:100D900008BD0000000800404038024090F83D10B7
:100DA000012901D001207047022180F83D1001681F
:100DB000CA6842F00102CA6000681149884214D032
:100DC000B0F1804F11D00F4988420ED00E498842B1
:100DD0000BD00E49884208D00D49884205D00D49F4
:100DE000884202D00C49884204D1816801F0070191
:100DF000062903D0016841F001010160002070471D
:100E0000000001400004004000080040000C0040C9
:100E100000040140004001400018004070B5044645
:100E200090F83C00012817D0012584F83C5002209E
:100E300084F83D002068826822F0770222F47F4225
:100E400082600868502830D00DDC20284DD005DCA9
:100E500098B310283BD148E0022070BD302844D020
:100E6000402834D139E0602828D0702806D0B0F569
:100E7000805F2CD0B0F5005F29D10AE0CB68D1E9C2
:100E80000121206800F086FB2068816841F077012D
:100E900009E0CB68D1E90121206800F07BFB2068E4
:100EA000816841F48041816011E0CA684968206826
:100EB00000F044FC5021206807E016E0CA68496849
:100EC000206800F04CFC6021206800F06DFB84F885
:100ED0003D50002084F83C0070BDCA684968206815
:100EE00000F02CFC40212068EFE722680146104604
:100EF000EBE7704770B50446006801694FF00005E4
:100F0000C943890715D4C168C943890711D4E91EAB
:100F1000016101202077206880698007204602D087
:100F2000FFF7E7FF04E000F0E9F8204600F015F9CC
:100F3000257720680169C943490717D4C168C943A7
:100F4000490713D46FF00401016102202077206863
:100F5000806910F4407F204602D0FFF7CAFF04E00A
:100F600000F0CCF8204600F0F8F8257720680169F9
:100F7000C943090716D4C168C943090712D46FF0E1
:100F800008010161042020772068C069800720469D
:100F900002D0FFF7AEFF04E000F0B0F8204600F00A
:100FA000DCF8257720680169C943C90617D4C168F0
:100FB000C943C90613D46FF01001016108202077DE
:100FC0002068C06910F4407F204602D0FFF791FFEF
:100FD00004E000F093F8204600F0BFF82577206881
:100FE0000169C943C90708D1C168C943C90704D108
:100FF000891E0161204600F0B1F820680169C943EB
:10100000090609D4C168C943090605D46FF08001F7
:1010100001612046FFF72BFE20680169C94349069C
:1010200009D4C168C943490605D46FF04001016184
:10103000204600F094F820680169C94389060BD462
:10104000C168C943890607D46FF0200101612046B9
:10105000BDE87040FFF70CBE70BD000010B586B053
:10106000044614216846FFF7E3F80E4920688842D9
:1010700015D10D480021026842F0080202600068A4
:1010800000F0080005904FF4804000900220CDE968
:101090000101CDE9031069460448FFF707F906B0DE
:1010A00010BD00000008004030380240000C024033
:1010B00010B5044690F83C0001280AD0012084F8BD
:1010C0003C0042B1042A0AD0082A0CD00C2A11D1C3
:1010D0000DE0022010BD206800F06EFA0AE02068E2
:1010E00000F09AFA06E0206800F0CCFA02E02068EE
:1010F00000F0FCFA002084F83C0010BD704710B5E9
:10110000040003D094F83D0010B107E0012010BDA9
:10111000002084F83C00204600F01EF8022084F8ED
:101120003D00211D206800F0D1F9012084F846001F
:1011300084F83E0084F83F0084F8400084F84100C1
:1011400084F8420084F8430084F8440084F84500A1
:1011500084F83D00002010BD70477047704770470D
:101160000148FFF708BD000028000020FEE700004E
:101170002DE9F04186B014216846FFF759F8274859
:101180000024016841F080010160016801F08001E4
:101190000591016841F001010160016801F0010160
:1011A0000591016841F008010160016801F0080142
:1011B0000591016841F0020101600068184F00F0DC
:1011C00002000590002250213846FFF765F9DFF84C
:1011D0005480BD15002229464046FFF75DF9502096
:1011E00000900126CDE90164694638460394FFF773
:1011F0005DF802200095CDE9010403946946384664
:101200000494FFF753F80095CDE901646946404620
:101210000394FFF74BF806B0BDE8F0813038024088
:10122000000002400004024010B58EB00024079474
:10123000089409940A940B941C2168460C94FEF7B8
:10124000F7FF1D481B49C0E900140421C0E9024111
:10125000802104618161FFF755FD08B172B6FEE798
:101260004FF48050079007A91348FFF7D7FD08B146
:1012700072B6FEE71048FFF742FF08B172B6FEE70C
:101280000B940BA90C480C94FFF7F4FC08B172B650
:10129000FEE70094019402940822694606480494EB
:1012A000FFF706FF08B172B6FEE70348FFF7D6FE68
:1012B0000EB010BD0008004038000020FEE7FEE739
:1012C0002DE9F0432C4C7F22072700262B4B0125CC
:1012D00004F1800804F5C079104600F072FA4FEA74
:1012E000420200B1521C18687F1C401C1860D04399
:1012F00040063ED0202FEFD11F21C3E90321104625
:10130000C70702D044F8215001E044F821604008AA
:10131000491EF5D5C3E903065968304654F82070D4
:1013200017B1012F0DD018E004EB80077F6817B1CB
:10133000012F03D011E048F821600BE048F821604C
:1013400014E004EB80077F6817B1012F0CD004E094
:1013500048F8215049F82160491C801C2028DDDB19
:10136000596000271861B7E748F8215049F8215023
:10137000F2E7BDE8F08300008000002000000020BC
:1013800070477047FFF794B870B592B03021684647
:10139000FEF74EFF14210CA8FEF74AFF1E48002559
:1013A000016841F080510160006800F080501190A8
:1013B0001A48016841F4804101600068022400F489
:1013C0008040119001200090000486010190CDE939
:1013D000064608AA0420502182E813000B906846B4
:1013E000FFF712FA08B172B6FEE70F20CDE90C0440
:1013F0008020CDE90E054FF4C050109001210CA8BB
:10140000FFF7F2F808B172B6FEE700223146104647
:10141000FFF7B4F912B070BD4038024000700040D0
:101420000548016841F47001016003494FF0006014
:10143000803908607047000088ED00E070B51D4CF1
:101440001D4E4FF48075206820B901222946304690
:10145000FFF722F82068012804D1002229463046EF
:10146000FFF71AF815482168154D50F8210001289A
:101470001BD0002210212846FFF70EF811482168E2
:1014800050F82100012812D0002240212846FFF701
:1014900003F82068401C2060402801DB0020206009
:1014A000BDE870400848FFF725BD0122E2E70122B0
:1014B000EBE70000140000200004024000020020BE
:1014C000000002400001002038000020F0B5026852
:1014D000254C264D264E274F274B4FF0804CA042DF
:1014E00009D0604507D0A84205D0B04203D0B84229
:1014F00001D0984204D122F0700E4A6842EA0E02EE
:10150000A0421BD0604519D0A84217D0B04215D0D8
:10151000B84213D0984211D0184DA8420ED0184DA1
:10152000A8420BD0174DA84208D0174DA84205D0AD
:10153000164DA84202D0164DA84203D122F44075A0
:10154000CA682A434D6922F080022A4302608A68F1
:10155000C2620A688262A04201D0984201D1096940
:10156000016301214161F0BD000001400004004021
:1015700000080040000C0040000401400040014011
:10158000004401400048014000180040001C004099
:101590000020004010B5846842EA032224F47F440E
:1015A0000A432243826010BD826822F070020A431F
:1015B00042F0070181607047F0B5026A22F0010233
:1015C0000262036A42688469124E24F073050C6853
:1015D0002C4323F002058B682B430D4DA84201D00C
:1015E000B04205D123F00807CB683B4323F0040346
:1015F000A84201D0B04205D14D6922F44072154392
:101600008A692A4342608461496841630362F0BD8C
:101610000000014000040140F0B5026A22F010020F
:101620000262026A436884690D6824F4E64444EA6D
:1016300005248D6822F0200242EA05120F4D104E5B
:10164000A84201D0B04206D1CF6822F0800242EA1F
:10165000071222F04002A84201D0B04207D14D69E2
:1016600023F4406343EA85038D6943EA85034360BD
:101670008461496881630262F0BD0000000001409E
:1016800000040140F0B5026A22F480720262026A2C
:101690004368C46922F4007224F073050C68124E8A
:1016A0002C438D6842EA05220E4DA84201D0B0427B
:1016B00006D1CF6822F4006242EA072222F4806257
:1016C000A84201D0B04207D14D6923F4405343EA08
:1016D00005138D6943EA05134360C4614968C1631A
:1016E0000262F0BD000001400004014030B5026A12
:1016F00022F480520262046A4268C3690D6823F4CE
:10170000E64343EA05238D6824F4005444EA053493
:10171000084DA84202D0084DA84204D14D6922F4D8
:10172000804242EA85124260C361496801640462F2
:1017300030BD0000000001400004014010B5036A04
:10174000046A24F001040462846924F0F00444EA89
:10175000021423F00A020A438461026210BD10B52C
:10176000036A23F0100303628369046A23F470435D
:1017700043EA023224F0A00343EA011182610162CC
:1017800010BDFEE70907090E002804DB00F1E02088
:1017900080F80014704700F00F0000F1E02080F89E
:1017A000141D704702E008C8121F08C1002AFAD1B0
:1017B00070477047002001E001C1121F002AFBD1D1
:1017C00070470146400601D5012000E0002089064F
:1017D00001D5012100E0002148407047FFF770FD6E
:1017E000FEF76EFEFFF7D0FDFFF7C2FC0849074881
:1017F00008600846FFF7EEF908B172B6FEE7FFF79A
:1018000013FD03481030FFF7C9FAFEE70008065041
:101810002800002000000000000000000102030476
:1018200006070809441800080000002028000000EE
:10183000A41700086C18000828000020D806000033
:10184000B4170008000000000000000000000000C5
:101850000000000000000000000000000100000087
:0C18600010000000000000000024F40054
:040000050800018965
:00000001FF
